:040000008A11EA2F48
:100CEC00831603139114911C0800792E8316031399
:100CFC001114111C08007F2E831603131115111DDE
:100D0C000800852E83120313AE0005152E088A11D8
:100D1C002B27080083120313AE0005112E088A112D
:100D2C002B27080083120313AB008C112B089300A4
:100D3C008C1908009E2E831203138C118316031337
:100D4C009112111683128C190800A82E831203130A
:100D5C008C11831603139116111683128C1908002B
:100D6C00B32E831203138C11831603139115831264
:100D7C008C1DBD2E130808005034493443343134D3
:100D8C0036344634383437343334413400348316F3
:100D9C000313871507168030940028308312031331
:100DAC0094008316031391010930930008007E0808
:100DBC008A007F088200DD268A118000840A0408DC
:100DCC007D0603190034FF0A0319FE0AE12E83166F
:100DDC000313071087100711861105118511831253
:100DEC000313051185110710871007118611413067
:100DFC0083120313B000EE30AF00AF0B032FB00B18
:100E0C00032F02308A1190268A1128308A119026DD
:100E1C008A110C308A1190268A1106308A1190267C
:100E2C008A1101308A1190268A1102308312031321
:100E3C00B1008630B0009830AF00AF0B232FB00B51
:100E4C00232FB10B232F2A2F080083120313AD007D
:100E5C002D1E322F0714332F0710AD1E372F87147A
:100E6C00382F87102D1F3C2F07153D2F0711AD1F55
:100E7C00412F8615422F861185150000831203130E
:100E8C0085112D08AB0003300310AB0DFF3E031D85
:100E9C004A2F03102B0DAC002C08AD002D1E582F23
:100EAC000714592F0710AD1E5D2F87145E2F871066
:100EBC002D1F622F0715632F0711AD1F672F861586
:100ECC00682F8611851500008312031385111030CD
:100EDC0083120313AB00AB0B712F08000630831683
:100EEC0003139F008A11ED268A118A11CD268A11CF
:100EFC008A117C268A11A0308A1198268A1100301A
:100F0C008A1198268A1100308A1198268A11831228
:100F1C000313B4013408203E8400831300088A11A3
:100F2C0098268A11013083120313B2003208B407D9
:100F3C0008303402031C902F8A1182268A111A3031
:100F4C0083120313B300F830B200B20BAB2FB30B08
:100F5C00AB2F8A117C268A11A0308A1198268A110F
:100F6C0000308A1198268A1100308A1198268A112D
:100F7C008A1176268A11A1308A1198268A11831239
:100F8C000313B501B50A8A11B7268A118A1188266E
:100F9C008A110830831203133506031DD92F8A11C9
:100FAC00AC268A11DC2F8A11A1268A1101308312FA
:100FBC000313B2003208B50709303502031CC92FE0
:100FCC008A1182268A11E92F83132B30FD000630FB
:100FDC00FE00C230FF00203084008A11E126B601E9
:100FEC00B701B801B901BA01BB01BC01BD01830154
:040FFC008A11742FB3
:08400000FF3FFF3FFF3FFF3FC0
:02400E00313F40
:00000001FF
