:060000000A128A11FC2F18
:100EAC00831203138C1E5B2F5C2F5E2F1A085F2F8F
:100EBC0000300800F00070088312031399008316A9
:100ECC000313981C6A2F6B2F652F080083160313CE
:100EDC0087170713181218131815813099008312ED
:100EEC0003139817831603139816831203131816FB
:100EFC000800F8308316031386008312031386014F
:100F0C000A128A116C270A128A111A30F3005E3009
:100F1C00F2006E30F100F10B912FF20B912FF30BCD
:100F2C00912F00000A128A1156270A128A11F10019
:100F3C007108F400DD2F83120313061461300A12BA
:100F4C008A1160270A128A11982F62300A128A11AC
:100F5C0060270A128A11831203130610982F83122A
:100F6C000313861463300A128A1160270A128A113D
:100F7C00982F83120313861064300A128A1160278B
:100F8C000A128A11982F83120313061565300A1260
:100F9C008A1160270A128A11982F831203130611E3
:100FAC0066300A128A1160270A128A11982F740867
:100FBC00F100F2017208003A0319E52F982F71081D
:100FCC00413A0319A12F033A0319AB2F013A031924
:100FDC00B52F073A0319BF2F013A0319C92F033A4A
:100FEC000319D32F982F0A128A11002883010A1291
:040FFC008A117F2FA8
:08400000FF3FFF3FFF3FFF3FC0
:02400E00323F3F
:00000001FF
