:040000008A110D282C
:10000800FE00030E83120313A0000A08A1008A1140
:1000180012288A110F2883018A112B288C1C152875
:10002800162824280310861C031403181C282028CB
:1000380083120313861423288312031386108C104B
:1000480021088A00200E8300FE0E7E0E090083160A
:10005800031386108312031386108A113C208A1119
:100068008B170B17831603138C1439288A110D2844
:10007800831203139101C33083160313920078305F
:0E008800831203139204033092041215080031
:08400000FF3FFF3FFF3FFF3FC0
:02400E00313F40
:00000001FF
