:040000008A11112828
:10000800FE00030E83120313B9000408BA000A089D
:10001800BB007F08BC008A11DB2A8A1113288301E0
:100028008A11AC2A83120313D4004C30CE004E0838
:10003800D100013083120313D407FF305407840022
:100048008A1174218A11CE004E08D7005708031967
:100058000800253057060319362857088A11272320
:100068008A111D28D2010130D407FF3054078400BB
:100078008A1174218A11D700003A0319C428643AF6
:1000880003194A280D3A03194A281D2851088400E3
:1000980083130008D500840A0008D6000230CE0079
:1000A8004E08D107D61F61280330CE004E08D2046F
:1000B800D509D609D50A0319D60AD701D70A570888
:1000C800CE004E07013E84008A1174218A11CF00A8
:1000D8008A1174218A11D00050085602031D76280F
:1000E8004F085502031C80280130CE004E08D70760
:1000F80005305706031D6328520803390319882859
:100108002D308A1127238A11831203135708CE0032
:100118004E08D300FF3083120313CE004E08D307D6
:10012800530A03191D280A30C6000030C7005308B7
:10013800CE004E07013E84008A1174218A11BE0048
:100148008A1174218A11BF005608C1005508C000E1
:100158008A11C8218A11831203133F08C9003E0877
:10016800C8008A1144228A11831203134608303EBC
:10017800CF004F08D70057088A1127238A118E28E5
:10018800080083120313B3002030AE002E08B1001C
:10019800013083120313B307FF30330784008A1139
:1001A80074218A11AE002E08B70037080319080019
:1001B800253037060319E52837088A112E238A11B6
:1001C800CC28B2010130B307FF30330784008A110D
:1001D80074218A11B700003A03197329643A031984
:1001E800F9280D3A0319F928CC283108840083131B
:1001F8000008B500840A0008B6000230AE002E08D8
:10020800B107B61F10290330AE002E08B204B50995
:10021800B609B50A0319B60AB701B70A3708AE0016
:100228002E07013E84008A1174218A11AF008A11B9
:1002380074218A11B00030083602031D25292F08C1
:100248003502031C2F290130AE002E08B7070530F0
:100258003706031D122932080339031937292D30AF
:100268008A112E238A11831203133708AE002E0831
:10027800B400FF3083120313AE002E08B407340A0B
:100288000319CC280A30A8000030A9003408AE00B1
:100298002E07013E84008A1174218A11A0008A1158
:1002A80074218A11A1003608A3003508A2008A111A
:1002B80006228A11831203132108AB002008AA0022
:1002C8008A1178228A11831203132808303EAF005E
:1002D8002F08B70037088A112E238A113D290800F4
:1002E80001308A000408840A82070034013400348B
:1002F8000A34003464340034E834033410342734C6
:10030800203449346E34743465347234753470343E
:10031800633469346F346E34203465346E34203479
:1003280052345834203455345334413452345434CC
:1003380020340A340D34003449346E34743465344E
:10034800723475347034633469346F346E342034E5
:1003580065346E34203452344234303420340A3414
:100368000D34003445346C3420346E3475346D34B7
:10037800653472346F342034653473342034253452
:1003880064340A340D34003483120313C301C401E6
:100398003E083F040319012AC501C50ABF1BE0290D
:1003A80001300310BE0DBF0DFF3E031DD5290130DE
:1003B800C2004208C507D22901300310C30DC40D7D
:1003C800FF3E031DE1293F084102031DED293E08B8
:1003D8004002031CF6293E08C0023F08031CC10363
:1003E800C102431401300310BF0CBE0CFF3E031DB5
:1003F800F7290130C502031DE0294408BF0043085E
:10040800BE00080083120313A501A60120082104D9
:1004180003193F2AA701A70AA11B1E2A01300310AE
:10042800A00DA10DFF3E031D132A0130A4002408CE
:10043800A707102A01300310A50DA60DFF3E031DC6
:100448001F2A21082302031D2B2A20082202031C2D
:10045800342A2008A2022108031CA303A30225149E
:1004680001300310A10CA00CFF3E031D352A0130FA
:10047800A702031D1E2A2608A1002508A0000800BF
:1004880083120313460847040319732ACB01CB0AC6
:10049800C71B5A2A01300310C60DC70DFF3E031DA6
:1004A8004F2A0130CA004A08CB074C2A470849029C
:1004B800031D602A46084802031C682A4608C80229
:1004C8004708031CC903C90201300310C70CC60C36
:1004D800FF3E031D692A0130CB02031D5A2A490831
:1004E800C7004808C6000800831203132808290417
:1004F8000319A72AAD01AD0AA91B8E2A01300310E2
:10050800A80DA90DFF3E031D832A0130AC002C085D
:10051800AD07802A29082B02031D942A28082A02DD
:10052800031C9C2A2808AA022908031CAB03AB0257
:1005380001300310A90CA80CFF3E031D9D2A0130B1
:10054800AD02031D8E2A2B08A9002A08A80008005E
:100558008A1100238A1183120313DB018B170B17EF
:100568000B16831603138C160117831203135B08EB
:10057800D800D9015808CC005908CD003D308A115F
:1005880016208A11013083120313D8005808DB079C
:100598001A3083120313DA005E30D9006E30D800A7
:1005A800D80BD42AD90BD42ADA0BD42AB92A8B1C13
:1005B800E32A27308A11C5208A118B10F42A8C1E51
:1005C800F42A1A08B8003808BD003D088A111D230E
:1005D8008A110B308A11C5208A11831203138C12D9
:1005E800831203133C083B088A003A088400390E3A
:1005F8008300FE0E7E0E0900831603138717071368
:1006080018121813181581309900831203139817BC
:1006180083160313981683120313181608008312FF
:100628000313BE003E0899008316031398180800A8
:10063800182B83120313A0002008990083160313B4
:1006480098180800222B83120313BF003F088A1151
:100658001323080083120313A10021088A111D2304
:02066800080088
:08400000FF3FFF3FFF3FFF3FC0
:02400E00323F3F
:00000001FF
