:020000040000FA
:100000008A11FD2F00308A000408840A8207003418
:10001000013400340A34003464340034E8340334E6
:0A0020001034273425346434003412
:100A9000831603139F171F08F0390E389F001F138A
:100AA000831203139F139F171F140800831203134D
:100AB000A400662D2408840000088A116F258A117D
:100AC000013083120313A3002308A4072408840021
:100AD00083130008031D6D2D6E2D5A2D08008312FF
:100AE0000313A20005152208A10004300310A10C75
:100AF000FF3E031D762D21088A11B2258A1183122B
:100B0000031322080F398A11B2258A11113083127A
:100B10000313A100A10B8A2D8D2D0800831203134E
:100B2000A3002308A200A20EA20DA20D1F082206F8
:100B30003F3922069F00073083120313A200A20B45
:100B40009F2DA22D831203131F151F19A82DA92D48
:100B5000A52D1E08A100831603131E08831203137C
:100B6000A000080083120313A000201CB82DB92D8B
:100B7000BB2D0714BC2D0710A01CBF2DC02DC22DEE
:100B80008714C32D8710201DC62DC72DC92D07150D
:100B9000CA2D0711A01DCD2DCE2DD02D8715D12DFD
:100BA00087118515000000008312031385110800CA
:100BB0008A1148258A118A11C4268A1101308A11A6
:100BC0000A268A1100308A118E258A118312031396
:100BD0002108C8002008C7000B30BB003B08AE004E
:100BE0004808B0004708AF003D308A1123278A111A
:100BF0003D308A1156258A11823083120313BC00BE
:100C0000DD30BB00BB0B022EBC0B022E0000DE2D24
:100C10008A11002883120313A30005112308A100E1
:100C200004300310A10CFF3E031D112E21088A1170
:100C3000B2258A118312031323080F398A11B225B2
:100C40008A118312031323030319272E282E2E2E15
:100C500002302306031D2D2E2E2E3A2E0330831232
:100C60000313A2009730A100A10B342EA20B342E47
:100C70000000412E113083120313A100A10B3E2E60
:100C8000412E080083120313280829040319492E52
:100C90004A2E792EAD01AD0A582E01300310A80D51
:100CA000A90DFF3E031D4E2E0130AC002C08AD07F0
:100CB000A91F5B2E5C2E4D2E29082B02031D622ED0
:100CC00028082A02031C652E662E6C2E2808AA020C
:100CD0002908031CAB03AB0201300310A90CA80CBC
:100CE000FF3E031D6D2E0130AD02031D782E792EBF
:100CF0005C2E2B08A9002A08A80008008312031301
:100D0000A501A601200821040319872E882EBF2ED5
:100D1000A701A70A962E01300310A00DA10DFF3EDA
:100D2000031D8C2E0130A4002408A707A11F992EB3
:100D30009A2E8B2E01300310A50DA60DFF3E031D2C
:100D40009B2E21082302031DA72E20082202031C2C
:100D5000AA2EAB2EB22E2008A2022108031CA30348
:100D6000A302251401300310A10CA00CFF3E031DAB
:100D7000B32E0130A702031DBE2EBF2E9A2E2608C9
:100D8000A1002508A0000800831203138511051196
:100D9000071087100711871183160313851105119A
:100DA00007108710071187111A3083120313A5004B
:100DB000F830A400A40BDA2EA50BDA2E03308A112A
:100DC000B2258A11073083120313A5007C30A400DA
:100DD000A40BE82EA50BE82EED2E03308A11B225C8
:100DE0008A11203083120313A400A40BF52EF82ED1
:100DF00003308A11B2258A11203083120313A40014
:100E0000A40B002F032F02308A11B2258A11203043
:100E100083120313A400A40B0B2F0E2F28308A116A
:100E20000A268A110C308A110A268A1101308A1189
:100E30000A268A1106308A110A268A1180308A1100
:100E40000A268A11080083120313B9002F30B1005B
:100E50003108B400E82F25303A060319302F312F1E
:100E60003D2F3A08B100390884003108831380000F
:100E70000130B1003108B907E82FB5010130AE07E4
:100E8000FF302E0784008A1102208A11BA00B100B7
:100E9000B2013208003A03194E2FE82F3108003A08
:100EA0000319F82F643A0319592F0D3A0319592FD2
:100EB000E82F3408840083130008B700840A000870
:100EC000B8000230B1003108B407B81F682F692F8D
:100ED000722F0330B1003108B504B709B809B70A59
:100EE0000319B80ABA01BA0A3A08B1003107013E3B
:100EF00084008A1102208A11B2008A1102208A110C
:100F0000B30033083802031D872F32083702031855
:100F10008A2F8B2F8C2F962F0130B1003108BA0702
:100F200005303A06031D952F962F742F3508033987
:100F300003199B2F9C2FA72F2D30B1003908840057
:100F40003108831380000130B1003108B9073A0835
:100F5000B1003108B600DF2F0A30A8000030A90028
:100F60003608B1003107013E84008A1102208A113F
:100F7000A0008A1102208A11A1003808A3003708B6
:100F8000A2008A117E268A11831203132108AB0066
:100F90002008AA008A1142268A1183120313280806
:100FA000303EB2003208BA003A08B1003908840075
:100FB0003108831380000130B1003108B907FF30D8
:100FC000B1003108B607360A031DE72FE82FAC2F12
:100FD0000130AE07FF302E0784008A1102208A11EB
:100FE000B1003108BA003A08031DF72FF82F2B2F54
:100FF0003908840083138001080083018A11D82DE9
:02400E0031FF80
:00000001FF
