:040000008A110F282A
:10000800FE00030E83120313A3000408A4000A08C9
:10001800A5008A1193298A11112883120313D70185
:10002800D801D901DA01DB018313A0308400E6305E
:100038008A1184248A1183018A118E2A8312031358
:10004800BB003030B2003208B6007E2925303E06AB
:1000580003192F2830283C283E08B2003B088400AA
:100068003208831380000130B2003208BB077E29B2
:10007800BC01BD01B701452837150130B20032086F
:10008800AF072F0884008A1134238A11B200B30104
:100098003308003A0319512856283208303A031910
:1000A800402856282F0884008A1134238A118A117F
:1000B80061248A11031C612862289A288312031379
:1000C800BC01BD010A3083120313A7000030A80049
:1000D8003D08AA003C08A9008A11B1238A1183129D
:1000E80003132808BD002708BC002F0884008A11C4
:1000F80034238A11D03EB200FF3003180030B30019
:100108003208BC070318BD0A3308BD070130B20026
:100118003208AF072F0884008A1134238A118A1104
:1001280061248A11031899289A28662801308312B5
:100138000313AF07FF302F0784008A1134238A1175
:10014800BE00B200B3013308003A0319AC287E2977
:100158003208003A03198E29583A0319B728203A69
:100168000319B7287E293608840083130008B800CD
:10017800840A0008B9000230B2003208B607BE018E
:10018800BE0A3E08B2003207013E84008A113423B9
:100198008A11B3008A1134238A11B4003408390251
:1001A800031DD828330838020318DB28DC28DD288B
:1001B800E7280130B2003208BE0704303E06031DAE
:1001C800E628E728C5283D08803A803C031DEE282C
:1001D8003C083E020318F128F228FE288312031374
:1001E8003E08B200B3013208BC023308031CBD0349
:1001F800BD02022983120313BC01BD01371D052965
:10020800062924293C083D0403190B290C294129F6
:100218003030B2003B08840032088313800001307C
:10022800B2003208BB07FF30BC070318BD0AFF3015
:10023800BD073C083D04031D222923290C29412917
:100248003C083D04031929292A2941292030B200F4
:100258003B0884003208831380000130B200320862
:10026800BB07FF30BC070318BD0AFF30BD073C08B9
:100278003D04031D402941292A293E08B2003208BD
:10028800BA0075293A08B2003207013E84008A1183
:1002980034238A11A7008A1134238A11A800390847
:1002A800AA003808A9008A11EE228A1183120313C2
:1002B80027080F39B3003308B50035082F3E8400EE
:1002C8008A1134238A11B2003208BE003E08B200F7
:1002D8003B0884003208831380000130B2003208E2
:1002E800BB07FF30B2003208BA073A0A031D7D295E
:1002F8007E2946290130AF07FF302F0784008A1175
:1003080034238A11B2003208BE003E08031D8D292D
:100318008E292A283B08840083138001080083164D
:1003280003130C1C98299929A529831203130C1C63
:100338009E299F29A5298E018F010C10DB01D70169
:10034800D80183120C1DA929AA29112A8E018F010F
:10035800831603130C11831203130C115B08031D7E
:10036800B629B7290E2A5708A0002007A03E840006
:10037800150883138000840A160880000130D70707
:100388000318D80A0030D807003058022230031961
:100398005702031CD029D1290E2ADA01D9010830C5
:1003A800A0002008A6000310D90C0310DA0C2608B8
:1003B800A0002007A23E84000008A100840A0008CB
:1003C800A20000302202F13003192102031CED299A
:1003D800EE29EF29D9172608A0002007C23E84007D
:1003E8000008A100840A0008A20000302202F130AF
:1003F80003192102031C012A022A032ADA170130F1
:10040800A6022608031D092A0A2AD729D701D801D6
:10041800DB01DB0A831603130C15831225088A00F7
:1004280024088400230E8300FE0E7E0E0900831626
:100438000313051185118312031305118511831602
:10044800031307108710061187111A30831203133C
:10045800AB00F830AA00AA0B2F2AAB0B2F2A831265
:100468000313AC0103308A11D8238A110730831291
:100478000313AB007C30AA00AA0B402AAB0B402A1E
:10048800452A013083120313AA002A08AC07033057
:100498002C02031C502A512A362A02308A1123249E
:1004A8008A11073083120313AB007C30AA00AA0B11
:1004B8005B2AAB0B5B2A602A28308A1123248A1115
:1004C800073083120313AB007C30AA00AA0B6A2AF8
:1004D800AB0B6A2A6F2A0C308A1123248A11073041
:1004E80083120313AB007C30AA00AA0B792AAB0B4A
:1004F800792A7E2A01308A1123248A11073083122F
:100508000313AB007C30AA00AA0B882AAB0B882AFD
:100518008D2A08000630831603139F008A111B22B8
:100528008A118316031307150C150430831203135D
:1005380097000C11101690169010831603130C14C4
:100548008B170B178312031310148A1175248A1141
:10055800093083120313BF003F08AF005A08C000D8
:10056800C1014008B0004108B10042308A11222080
:100578008A1142308A1148248A111C3083120313CD
:10058800BF003F08AF005908C000C1014008B000D3
:100598004108B10042308A1122208A1102308312A8
:1005A8000313BF003F08AA0001308A1179238A117A
:1005B80042308A1148248A11823083120313C00002
:1005C800DD30BF00BF0BE62AC00BE62A0000A92ACF
:1005D8008A110F2883120313AC01AD0127082804E0
:1005E8000319F72AF82A2F2BAE01AE0A062B013081
:1005F8000310A70DA80DFF3E031DFC2A0130AB0018
:100608002B08AE07A81F092B0A2BFB2A0130031061
:10061800AC0DAD0DFF3E031D0B2B28082A02031D50
:10062800172B27082902031C1A2B1B2B222B270800
:10063800A9022808031CAA03AA022C1401300310DB
:10064800A80CA70CFF3E031D232B0130AE02031D8F
:100658002E2B2F2B0A2B2D08A8002C08A7000800EA
:1006680003308A000408840A820700340134003405
:1006780010340034003401340034103443346F34FF
:100688006D3461346E3464346F343A342034203439
:1006980020343034783425343034323458342034EB
:1006A80000344434693472346534633463346934EF
:1006B8006F346E343A34203430347834253430345E
:1006C8003234583420340034303431343234333412
:1006D80034343534363437343834393441344234A8
:1006E8004334443445344634003483120313AE0093
:1006F800952B2E08FF3EAB002B08AD00AB2B2E0828
:100708003F3EAB002B08AD00AB2B2E08133EAB00D1
:100718002B08AD00AB2B2E08533EAB002B08AD00C9
:10072800AB2B2A08AB00AC012C08003A03199D2B0F
:100738007D2B2B08013A03197D2B033A0319832BD0
:10074800013A0319892B073A03198F2B7D2B2D08A2
:1007580080388A1123248A11080083120313AB01FD
:10076800AC01271CB82BB92BBF2B2908AB070318E2
:10077800AC0A2A08AC0701300310A90DAA0DFF3EE8
:10078800031DC02B01300310A80CA70CFF3E031D4E
:10079800C72B27082804031DD22BD32BB52B2C08D5
:1007A800A8002B08A700080083120313A700271C22
:1007B800DE2BDF2BE12B0714E22B0710A71CE52B00
:1007C800E62BE82B8714E92B8710271DEC2BED2B44
:1007D800EF2B0615F02B0611A71DF32BF42BF62B88
:1007E8008715F72B87118515000000008312031366
:1007F8008511080083120313A90005112030831204
:100808000313A800A80B062C092C83120313051543
:100818000000831203132908A80004300310A80C51
:10082800FF3E031D122C28088A11D8238A1183122F
:10083800031329080F398A11D8238A110800831253
:100848000313A9000511313083120313A800A80B64
:100858002B2C0000831203130511000083120313CD
:100868002908A80004300310A80CFF3E031D372CEC
:1008780028088A11D8238A118312031329080F39EB
:100888008A11D8238A11080083120313AB00582C4D
:100898002B08840000088A11FE238A110130831274
:1008A8000313AA002A08AB072B0884008313000847
:1008B800031D5F2C602C4C2C080083120313A80026
:1008C800A7013A30280203186A2C6B2C732C30309D
:1008D8002802031C702C712C732CA701A70A270C63
:1008E800080001308A1123248A110430831203136B
:1008F800AB00E430AA00AA0B7F2CAB0B7F2C0800BE
:1009080064008001840A0406031900340406852C57
:08400000FF3FFF3FFF3FFF3FC0
:02400E00313F40
:00000001FF
