:100000000A128A11FC2F00308A000408840A820731
:10001000003445346E34633465346E34643465348E
:10002000723420346C3465346434203463346F3477
:100030006E342034313420347934203461347034D7
:10004000613467346134723420346C346534643420
:10005000203463346F346E34203430340A340D3439
:1000600000346C3465346434203465346E34633465
:1000700065346E346434693464346F3420340A3443
:100080000D3400346C34653464342034613470349D
:1000900061346734613464346F3420340A340D348D
:0200A00000342A
:100EF200831203138C1E7E2F7F2F812F1A08822FBD
:100F020000300800F0007008831203139900831662
:100F12000313981C8D2F8E2F882F0800831603131E
:100F220087170713181218131815813099008312A6
:100F320003139817831603139816831203131816B4
:100F42000800F200B42F720884000A128A110320EA
:100F52000A128A110A128A1183270A128A1101308F
:100F6200F1007108F207720884000A128A11032044
:100F72000A128A11003A031DBF2FC02FA42F0800A6
:100F82008316031306108312031306100A128A1122
:100F92008F270A128A1101300A128A11A2270A1215
:100FA2008A110A128A1179270A128A11F300730828
:100FB200F40031307406031DDF2FE02FE92F2930B2
:100FC2000A128A11A2270A128A1183120313061423
:100FD20030307406031DEE2FEF2FD22F3A300A1253
:100FE2008A11A2270A128A11831203130610D22F22
:0E0FF2000A128A11002883010A128A11C12FE7
:08400000FF3FFF3FFF3FFF3FC0
:02400E00323F3F
:00000001FF
