:040000008A110D282C
:10000800FE00030E83120313AC000A08AD008A1128
:100018005A288A110F2883120313A001A101A201F3
:10002800A301A401A501A601A701A801A901AA018C
:1000380083018A111F2883160313861006148A1158
:10004800AE208A118A119B208A118A11BC208A113C
:100058008A11C9208A118B170B164130831203139A
:10006800B100EE30B000B00B3728B10B37280030A4
:100078008A1184208A1183120313B0003008AA0061
:10008800D2302A02031C49284A284D2886140B120C
:100098003B280B302A02031852285328562886106A
:1000A8000B123B280B163B288A110D280B1D5D28C7
:1000B8005E286C288614023083120313AB00AB0B46
:1000C800632866288312031386100B118B127D2870
:1000D8008C1E6F28702873281A088C127D288B1C98
:1000E800762877287D2886102A0881000B118B1620
:1000F8008B102D088A002C0E8300FE0E7E0E090040
:1001080083120313AF002F08AE00AE0EAE0DAE0D76
:100118001F082E063F392E069F00922883120313CC
:100128001F151F199828992895281E080800831656
:100138000313871707131812181318151930990085
:100148008312031398178316031398168312031345
:1001580018160800831603139F131F08F0390E386A
:100168009F001F13831203139F131F171F140800E8
:1001780083160313811281110108F83904388100AC
:10018800FF3083120313810008008316031301173D
:040198008B100800C0
:08400000FF3FFF3FFF3FFF3FC0
:02400E00313F40
:00000001FF
