:100000008A11FD2F00308A000408840A8207003418
:10001000013400340A34003464340034E8340334E6
:100020001034273461346434633420343D34203454
:0A003000253464340A340D34003422
:100BAA0083120313A0002008990083160313981CCC
:100BBA00DF2DE02DDA2D0800831603139F171F0877
:100BCA00F0390E389F001F13831203139F139F17C8
:100BDA001F140800831203139101F93083160313BB
:100BEA0092007830831203139204FC309205121596
:100BFA0008008316031387170713181218131815FA
:100C0A001930990083120313981783160313981641
:100C1A00831203131816080083120313A200212E4D
:100C2A002208840000088A11D5258A11013083120E
:100C3A000313A1002108A2072208840083130008D5
:100C4A00031D282E292E152E080083120313A30034
:100C5A002308A200A20EA20DA20D1F0822063F39E8
:100C6A0022069F00073083120313A200A20B3B2E19
:100C7A003E2E831203131F151F19442E452E412E93
:100C8A001E08A100831603131E0883120313A00073
:100C9A00080083120313280829040319552E562E17
:100CAA00852EAD01AD0A642E01300310A80DA90DE1
:100CBA00FF3E031D5A2E0130AC002C08AD07A91FB8
:100CCA00672E682E592E29082B02031D6E2E28081E
:100CDA002A02031C712E722E782E2808AA022908CD
:100CEA00031CAB03AB0201300310A90CA80CFF3E96
:100CFA00031D792E0130AD02031D842E852E682E28
:100D0A002B08A9002A08A800080083120313A501CA
:100D1A00A601200821040319932E942ECB2EA70195
:100D2A00A70AA22E01300310A00DA10DFF3E031D3C
:100D3A00982E0130A4002408A707A11FA52EA62ECD
:100D4A00972E01300310A50DA60DFF3E031DA72EF9
:100D5A0021082302031DB32E20082202031CB62EEB
:100D6A00B72EBE2E2008A2022108031CA303A30249
:100D7A00251401300310A10CA00CFF3E031DBF2E49
:100D8A000130A702031DCA2ECB2EA62E2608A100CB
:100D9A002508A00008008316031307118A11EF25FE
:100DAA008A118A11E1258A118A11FE258A110C30CD
:100DBA0083120313970000308A112A268A1183129C
:100DCA0003132108CD002008CC000B30BB003B08E0
:100DDA00AE004D08B0004C08AF003D308A112B27F9
:100DEA008A113D308A1111268A11033083120313A6
:100DFA004D02E93003194C02031C042F052F092F59
:100E0A00E830CC000330CD004C080139BB00BB0EE2
:100E1A0017083B06EF393B0697004C080239BB001E
:100E2A00BB0EBB0D17083B06DF393B0697004D0882
:100E3A00BC004C08BB000310BC0CBB0C0310BC0C60
:100E4A00BB0C3B089500E02E8A110028831203137D
:100E5A00B9002F30B1003108B400E82F25303A0626
:100E6A000319382F392F452F3A08B1003908840061
:100E7A003108831380000130B1003108B907E82F27
:100E8A00B5010130AE07FF302E0784008A11022017
:100E9A008A11BA00003A0319F82F643A0319592F34
:100EAA000D3A0319592FE82F3408840083130008D8
:100EBA00B700840A0008B8000230B1003108B4074C
:100ECA00B81F682F692F722F0330B1003108B5049B
:100EDA00B709B809B70A0319B80ABA01BA0A3A0827
:100EEA00B1003107013E84008A1102208A11B20042
:100EFA008A1102208A11B30033083802031D872F92
:100F0A003208370203188A2F8B2F8C2F962F013025
:100F1A00B1003108BA0705303A06031D952F962FFE
:100F2A00742F3508033903199B2F9C2FA72F2D30B7
:100F3A00B100390884003108831380000130B10000
:100F4A003108B9073A08B1003108B600DF2F0A3074
:100F5A00A8000030A9003608B1003107013E84001C
:100F6A008A1102208A11A0008A1102208A11A10086
:100F7A003808A3003708A2008A118A268A11831228
:100F8A0003132108AB002008AA008A114E268A11F1
:100F9A00831203132808303EB2003208BA003A0816
:100FAA00B100390884003108831380000130B10090
:100FBA003108B907FF30B1003108B607360A031DF8
:100FCA00E72FE82FAC2F0130AE07FF302E07840041
:100FDA008A1102208A11B1003108BA003A08031DA9
:100FEA00F72FF82F332F3908840083138001080064
:060FFA0083018A11D02ED4
:08400000FF3FFF3FFF3FFF3FC0
:02400E00313F40
:00000001FF
